:020000040800F2
:10000000C8080020290200080F060008350400086F
:100010000D060008E3020008D508000800000000F3
:100020000000000000000000000000007907000848
:10003000E902000800000000250600083108000859
:10004000430200084302000843020008430200087C
:10005000430200084302000843020008430200086C
:10006000430200084302000843020008430200085C
:10007000430200084302000843020008430200084C
:10008000430200084302000843020008430200083C
:10009000430200084302000843020008430200082C
:1000A000430200084302000843020008430200081C
:1000B000430200084302000843020008430200080C
:1000C00043020008430200084302000843020008FC
:1000D00043020008430200084302000843020008EC
:1000E00043020008430200084302000843020008DC
:1000F00043020008430200084302000843020008CC
:1001000043020008430200084302000843020008BB
:1001100043020008430200084302000843020008AB
:10012000430200084302000843020008430200089B
:10013000430200084302000843020008430200088B
:10014000430200084302000843020008430200087B
:10015000430200084302000843020008430200086B
:10016000430200084302000843020008430200085B
:100170004302000843020008430200080000000098
:10018000430200084302000800F002F800F03CF8C7
:100190000AA090E8000C82448344AAF10107DA45E2
:1001A00001D100F031F8AFF2090EBAE80F0013F0F8
:1001B000010F18BFFB1A43F0010318479C08000009
:1001C000BC080000103A24BF78C878C1FAD852079A
:1001D00024BF30C830C144BF04680C6070470000C1
:1001E0000023002400250026103A28BF78C1FBD840
:1001F000520728BF30C148BF0B6070471FB500F0E1
:100200001DFC1FBD10B510BD00F031F81146FFF701
:10021000F5FF00F077FB00F04FF803B4FFF7F2FFB3
:1002200003BC00F057F80000094880470948004720
:10023000FEE7FEE7FEE7FEE7FEE7FEE7FEE7FEE796
:10024000FEE7FEE704480549054A064B70470000F3
:100250007908000889010008C8020020C8080020A9
:10026000C8040020C80400207047704770477546D6
:1002700000F02CF8AE4605006946534620F0070012
:10028000854618B020B5FFF7DDFFBDE820404FF0F0
:1002900000064FF000074FF000084FF0000B21F070
:1002A0000701AC46ACE8C009ACE8C009ACE8C0093D
:1002B000ACE8C0098D46704710B50446AFF3008026
:1002C0002046BDE81040FFF7A8BF00000048704777
:1002D0006402002001491820ABBEFEE726000200A0
:1002E0007047FEE700F032BA704700001CB50121EC
:1002F0001A4800F099F90121002000F0A1F901212C
:10030000174800F0A9F90121164800F0B1F9684634
:1003100000F087F801208DF8070048F2FF70009088
:100320004FF6FF746946104800F02AF869460F48F6
:10033000009400F025F869460D48009400F020F87C
:1003400069460C4800F01CF869460B4800F018F8A4
:1003500069460A4800F014F81CBD00009F90670031
:100360000FC8E2103179170000000240000402407B
:1003700000080240000C024000100240001C024035
:10038000F0B50023012403270D6804FA03F2154099
:10039000954242D1D0F800C05E0007FA06F52CEA7B
:1003A000050CC0F800C091F804C0D0F800E00CFAC9
:1003B00006FC4CEA0E0CC0F800C091F804C0BCF179
:1003C000010F02D0BCF1020F1FD1D0F808C02CEAF7
:1003D000050CC0F808C091F805C0D0F808E00CFA88
:1003E00006FC4CEA0E0CC0F808C0D0F804C02CEA99
:1003F000020CC0F804C0426891F806C00CFA03FC75
:100400001FFA8CFC42EA0C024260C268AA43C26036
:10041000CA79C568B2402A43C2605B1C102BB3D3B3
:10042000F0BD4FF6FF7101600021017141718171D2
:10043000C1717047FEE700007CB50D4604001CD07A
:1004400000F080F80D49085C012100F025F9A08832
:10045000009005F003008DF80400C5F381008DF8CD
:100460000500C5F300108DF80600C5F341108DF8A6
:10047000070069462068FFF783FF7CBD4A0A000831
:100480004FF0FF3101EB101100F00F03042906DAE1
:10049000144830F8112001209840024201D1002078
:1004A0007047401E10404FF0553303EA5003C01A06
:1004B0004FF0333200F0333302EA90001844094A17
:1004C00000EB101000F00F30083A00EB102000EBAA
:1004D0001040515C00F03F000844034901EBC000AC
:1004E000704700004E0A000848000020F0B50C4A92
:1004F00000200C4EDFF830C0012300210CEB8025DA
:1005000036F8107003FA01F4274202D020C222F814
:10051000044B491C1029F3D3401C0428EDD3F0BD33
:10052000480000204E0A0008000002408171C2719C
:100530007047002805D0828801B1102100688A40E8
:100540008261704720B1006803490844800A7047FF
:100550004FF0FF30704700000000FEBF70B5054649
:100560000021084600F03EF80021012000F03AF892
:100570000021022000F036F80021032000F032F8BC
:1005800016492879164E08700024285D70B1FFF7CF
:1005900077FF611CCAB246F824000121FFF7C6FFAD
:1005A00056F824000121FFF747FF02E0002046F83B
:1005B0002400641C042CE8DB0021084600F012F83B
:1005C0000021012000F00EF80021022000F00AF8BE
:1005D000BDE870400021032000F004B83400002082
:1005E00048020020074B0A4601211B788140194030
:1005F00000D001210AB981F00101034A52F820001C
:10060000FFF797BF3400002048020020FEE7704744
:100610000249084302490860704700000000FA05DB
:100620000CED00E070470000044A0029116801D079
:10063000014300E081431160704700003038024000
:10064000044A0029116801D0014300E08143116090
:100650007047000034380240044A0029116801D074
:10066000014300E0814311607047000040380240C0
:10067000044A0029116801D0014300E08143116060
:1006800070470000443802400248016841F0807120
:100690000160704774380240420900F01F030120D6
:1006A0009840012A05D0022A05D0032A05D1FFF778
:1006B000BBBFFFF7DDBFFFF7CFBF704770B5204A64
:1006C0001168204C11F00C0104D06610042903D0ED
:1006D000082903D004601BE0066019E01849091FCF
:1006E0000B68C3F380550B6803F03F0315B1B6FBED
:1006F000F3F301E0B4FBF3F30C680968C4F3881466
:100700006343C1F30141491C4900B3FBF1F10160AE
:1007100011680F2303EA11110B4B5C5C0168E14087
:1007200041601468072505EA94241C5D21FA04F44D
:100730008460126805EA52329A5CD140C16070BD93
:10074000083802400024F40000000020014800F0B6
:1007500003B800005D02002000210A464254491CF3
:100760000429FBDB4D2101704C2141704E21817029
:100770004F21C17002717047704700000CB5002016
:100780002749019000900A6842F480320A604FF4D1
:10079000A0430A6802F400320092019A521C0192AE
:1007A000009A12B9019A9A42F3D10A68920334D599
:1007B000012000901A484030026842F080520260E6
:1007C0001848026842F44042026015480830026846
:1007D0000260026842F400420260026842F4A052E1
:1007E0000260031F104A1A600A6842F080720A60B1
:1007F0000A689201FCD50D4A40F20571116001684A
:1008000021F003010160016841F00201016001680B
:10081000C1F381010229FAD10CBD00900CBD00008A
:10082000003802400070004008544007003C02407D
:10083000102080F3128806484168491C416000215D
:1008400081604FF0E020006981F31188704700005B
:100850002800002010B50548FFF730FF0348044981
:100860000068B0FBF1F00349086010BD38000020BB
:1008700040420F0028000020124800B5016841F4F2
:10088000700101601048016841F0010101600E4AE9
:1008900000210832116002680C4B1A400260031DEF
:1008A0000B4A1A60026822F48022026006480C306B
:1008B0000160FFF763FF03494FF000608039086073
:1008C00000BD000088ED00E000380240FFFFF6FEAA
:1008D00010300024FEE730B504464FF47A7502E08C
:1008E000284600F003F8641EFAD230BD30B5054644
:1008F00000F02CF84FEA000400F028F8001BA84292
:10090000FAD330BD00F072F8FFF7F0FDFFF7EAFC14
:100910000C48017841F0010101700B48FFF71EFE01
:100920004FF42F7401210846FFF75CFE2046FFF7C5
:10093000D2FF00210120FFF755FE2046FFF7CBFF35
:10094000F0E70000100000205D020020124810B403
:100950000068C00502D1EFF3118010B110BC00F0A7
:100960001FB80E494FF0E02348689A6900BF4C68F1
:10097000A042F9D1096810BC01EB4103C3EBC113DC
:10098000C2EBC302B2FBF1F100EB4002C2EBC010BC
:1009900001EBC0007047000004ED00E028000020DB
:1009A00010B5102080F312884FF0E02101238A69EE
:1009B0000869C4030C4801D583608A69416883686B
:1009C000002484F311880068194400EB4004C4EB50
:1009D000C014C2EBC402B2FBF0F001EB4102C2EB67
:1009E000C11100EBC10010BD2800002010B5FFF7B9
:1009F000C5FE4FF4A060FFF70BFEFFF745FEFFF7C3
:100A000075FCFFF727FF0B484FF47A710068B0FBC5
:100A1000F1F0401EB0F1807F0AD24FF0E021486132
:100A2000054AF02082F8140D002088610720086133
:100A300010BD0000140000200FE000E04FF04070F7
:100A4000E1EE100A70470010203060616263FFFF22
:100A5000FFFFFFFFFFFF0000780A000800000020F2
:100A600038000000C4010008B00A00083800002067
:100A700090080000E00100080000000001020304EB
:100A8000010203040607080900000000007A030AB7
:100A9000000000000000000001020304060708092E
:100AA0000000000000000000000000000000000046
:040000050800018965
:00000001FF
